{
    "hex" : "010000000b1286797e5c3ad0fef542775f9054b5a0fb9ae404e68fb575c5e66bf0a1157dae000000004a493046022100f75008769857e9f71770adaa75b4bda73c886d9940ac5d106acd7249c6d92678022100b7dbdac969d9a9f6386b1fbab4f54b8876100d61a8270c23b02b4d802f481a6101ffffffff2f7611b6c2802df258ee6eee9c31e1831b8e6414afa6c1c28e2574a45a83a611000000004948304502210095f9729ce5e07bed5e68a3b6bf62854bb0e8d19b399599c28db9bdbd3697c732022056b1aab405bbef9a8de93cdfe102523eaf7d324427e4f388aad7fd9d35b08ab901ffffffff317ddd33b55a2c87de4bd1478248f81e16102e91ac53cb46b9b2283ddd73a97c000000004948304502200791d0c8396c449a763665b0763b83629561f0f9e56e21625e6fabd52aff921e022100fd2cc4b095fd46c9c6ad055ba14d0ecfdf28219b12269b1d2856ede290848aa501ffffffff36390ccfd14183974614da7826938d189ab9f2b6f1521caed1612d602991e033000000004a4930460221009544e5988b876b456fffccef6a759ff5da175d0ec1b3cedc1cd79a12822e1709022100cc0df0e9fb09df0f380bc40ea79afe0d43d7b445eb8f47dfab06c93c0a76fb6801ffffffff4c3bc14cf11efa40a2516170471bb7401a4e40f73dad346270d8bd8abee6b983000000004948304502202d579c12427e3972adfd9f2cdd04c33a9a160f0c8d666d345f3f13bf9d30e9430221008641f46efd2db371b8b8d15bc13b27562857f0eaea764a37fe3fe91aee63763201ffffffff550811cb19948bf5c5ed0fe0988406b6d2bed2d6c09dcaf2debc294ee9b0fc43000000004847304402202f2549c664b5e639818b9220164f701d9260b384be475396748532c3dd52964b02204614817fce474c4cb2ba7a5fb2728a298c16008b2896d2bbea0a708c5a32c38901ffffffffbcbb915d29d1a5e3ecb95b9dd3e71db7b01e7a7f27781849560507739d4f133b0000000049483045022100abd542c2272f993f23f2fafba59664382adacbd593f628c37c43c93cf533d01d02206196621e11d9710cfcd5078a765bf98595a8863f7bc7f552a3bd24f37fa28f2301ffffffffccdb662820822bc3f31f68af1488f63b99e9c3756eb22ff39b86b7d531e4efc100000000484730440220459ea218e2e1e64124ada3ad4063eb942292b1d728616a92be4a08fdecb115d90220611c8cf14a8fa63e6df9590d2eb329e88cdd28f51e2cfff9f1e3d8ce938c763f01ffffffffd2d3c25f4e66a0016df8076f4a4348fb45e2bb75fdd5f3d505a2cdadc4f8858f00000000484730440220674e34c8bd09e61c4e2ccb04d92c7f46f17c6cb353bf823ffdaf2d3ead0a3d8802201c7b923172f20712de494bd387d1a9dbcabcc8b0118c0a72ad14967a963252c001ffffffffef61a6bb0203ad043ddf09d5d8cb0829f98552bc5724bc0e92c916c0316b9a0800000000494830450221008fe5910bd674b7306bb34b97d6bc8cb40166d648c9e8f56c353fd284ec933a48022000c611d37c3a064ddaa012ef63f0ef9a83342af339a8509caf406556bcaeb34701fffffffff9ad2b3d0df6e78795feba4559820caa1d2377ffe06f5f87ac9adf5d829b7cd2000000004948304502201210e9916686a50b4d3b2417015c5bd187db095f899b9250acdf56f6e9e5efa6022100d2dc46bed27eff86963b22c7a88fb8444c589cff4f3d6cd8d515d80ec7f4efe301ffffffff0200b4c404000000001976a9147eb88f2e8ded37e31412f3936789136631ac75bd88ac00ca9a3b000000001976a914a1deccc73335ada285d6cf8c613c95ddd4c348eb88ac00000000",
    "txid" : "089f0979229ff5aededc1577a7dc9c675524520a4f36eb74af484d198f811cdf",
    "version" : 1,
    "locktime" : 0,
    "vin" : [
        {
            "txid" : "ae7d15a1f06be6c575b58fe604e49afba0b554905f7742f5fed03a5c7e798612",
            "vout" : 0,
            "scriptSig" : {
                "asm" : "3046022100f75008769857e9f71770adaa75b4bda73c886d9940ac5d106acd7249c6d92678022100b7dbdac969d9a9f6386b1fbab4f54b8876100d61a8270c23b02b4d802f481a6101",
                "hex" : "493046022100f75008769857e9f71770adaa75b4bda73c886d9940ac5d106acd7249c6d92678022100b7dbdac969d9a9f6386b1fbab4f54b8876100d61a8270c23b02b4d802f481a6101"
            },
            "sequence" : 4294967295
        },
        {
            "txid" : "11a6835aa474258ec2c1a6af14648e1b83e1319cee6eee58f22d80c2b611762f",
            "vout" : 0,
            "scriptSig" : {
                "asm" : "304502210095f9729ce5e07bed5e68a3b6bf62854bb0e8d19b399599c28db9bdbd3697c732022056b1aab405bbef9a8de93cdfe102523eaf7d324427e4f388aad7fd9d35b08ab901",
                "hex" : "48304502210095f9729ce5e07bed5e68a3b6bf62854bb0e8d19b399599c28db9bdbd3697c732022056b1aab405bbef9a8de93cdfe102523eaf7d324427e4f388aad7fd9d35b08ab901"
            },
            "sequence" : 4294967295
        },
        {
            "txid" : "7ca973dd3d28b2b946cb53ac912e10161ef8488247d14bde872c5ab533dd7d31",
            "vout" : 0,
            "scriptSig" : {
                "asm" : "304502200791d0c8396c449a763665b0763b83629561f0f9e56e21625e6fabd52aff921e022100fd2cc4b095fd46c9c6ad055ba14d0ecfdf28219b12269b1d2856ede290848aa501",
                "hex" : "48304502200791d0c8396c449a763665b0763b83629561f0f9e56e21625e6fabd52aff921e022100fd2cc4b095fd46c9c6ad055ba14d0ecfdf28219b12269b1d2856ede290848aa501"
            },
            "sequence" : 4294967295
        },
        {
            "txid" : "33e09129602d61d1ae1c52f1b6f2b99a188d932678da1446978341d1cf0c3936",
            "vout" : 0,
            "scriptSig" : {
                "asm" : "30460221009544e5988b876b456fffccef6a759ff5da175d0ec1b3cedc1cd79a12822e1709022100cc0df0e9fb09df0f380bc40ea79afe0d43d7b445eb8f47dfab06c93c0a76fb6801",
                "hex" : "4930460221009544e5988b876b456fffccef6a759ff5da175d0ec1b3cedc1cd79a12822e1709022100cc0df0e9fb09df0f380bc40ea79afe0d43d7b445eb8f47dfab06c93c0a76fb6801"
            },
            "sequence" : 4294967295
        },
        {
            "txid" : "83b9e6be8abdd8706234ad3df7404e1a40b71b47706151a240fa1ef14cc13b4c",
            "vout" : 0,
            "scriptSig" : {
                "asm" : "304502202d579c12427e3972adfd9f2cdd04c33a9a160f0c8d666d345f3f13bf9d30e9430221008641f46efd2db371b8b8d15bc13b27562857f0eaea764a37fe3fe91aee63763201",
                "hex" : "48304502202d579c12427e3972adfd9f2cdd04c33a9a160f0c8d666d345f3f13bf9d30e9430221008641f46efd2db371b8b8d15bc13b27562857f0eaea764a37fe3fe91aee63763201"
            },
            "sequence" : 4294967295
        },
        {
            "txid" : "43fcb0e94e29bcdef2ca9dc0d6d2bed2b6068498e00fedc5f58b9419cb110855",
            "vout" : 0,
            "scriptSig" : {
                "asm" : "304402202f2549c664b5e639818b9220164f701d9260b384be475396748532c3dd52964b02204614817fce474c4cb2ba7a5fb2728a298c16008b2896d2bbea0a708c5a32c38901",
                "hex" : "47304402202f2549c664b5e639818b9220164f701d9260b384be475396748532c3dd52964b02204614817fce474c4cb2ba7a5fb2728a298c16008b2896d2bbea0a708c5a32c38901"
            },
            "sequence" : 4294967295
        },
        {
            "txid" : "3b134f9d73070556491878277f7a1eb0b71de7d39d5bb9ece3a5d1295d91bbbc",
            "vout" : 0,
            "scriptSig" : {
                "asm" : "3045022100abd542c2272f993f23f2fafba59664382adacbd593f628c37c43c93cf533d01d02206196621e11d9710cfcd5078a765bf98595a8863f7bc7f552a3bd24f37fa28f2301",
                "hex" : "483045022100abd542c2272f993f23f2fafba59664382adacbd593f628c37c43c93cf533d01d02206196621e11d9710cfcd5078a765bf98595a8863f7bc7f552a3bd24f37fa28f2301"
            },
            "sequence" : 4294967295
        },
        {
            "txid" : "c1efe431d5b7869bf32fb26e75c3e9993bf68814af681ff3c32b82202866dbcc",
            "vout" : 0,
            "scriptSig" : {
                "asm" : "30440220459ea218e2e1e64124ada3ad4063eb942292b1d728616a92be4a08fdecb115d90220611c8cf14a8fa63e6df9590d2eb329e88cdd28f51e2cfff9f1e3d8ce938c763f01",
                "hex" : "4730440220459ea218e2e1e64124ada3ad4063eb942292b1d728616a92be4a08fdecb115d90220611c8cf14a8fa63e6df9590d2eb329e88cdd28f51e2cfff9f1e3d8ce938c763f01"
            },
            "sequence" : 4294967295
        },
        {
            "txid" : "8f85f8c4adcda205d5f3d5fd75bbe245fb48434a6f07f86d01a0664e5fc2d3d2",
            "vout" : 0,
            "scriptSig" : {
                "asm" : "30440220674e34c8bd09e61c4e2ccb04d92c7f46f17c6cb353bf823ffdaf2d3ead0a3d8802201c7b923172f20712de494bd387d1a9dbcabcc8b0118c0a72ad14967a963252c001",
                "hex" : "4730440220674e34c8bd09e61c4e2ccb04d92c7f46f17c6cb353bf823ffdaf2d3ead0a3d8802201c7b923172f20712de494bd387d1a9dbcabcc8b0118c0a72ad14967a963252c001"
            },
            "sequence" : 4294967295
        },
        {
            "txid" : "089a6b31c016c9920ebc2457bc5285f92908cbd8d509df3d04ad0302bba661ef",
            "vout" : 0,
            "scriptSig" : {
                "asm" : "30450221008fe5910bd674b7306bb34b97d6bc8cb40166d648c9e8f56c353fd284ec933a48022000c611d37c3a064ddaa012ef63f0ef9a83342af339a8509caf406556bcaeb34701",
                "hex" : "4830450221008fe5910bd674b7306bb34b97d6bc8cb40166d648c9e8f56c353fd284ec933a48022000c611d37c3a064ddaa012ef63f0ef9a83342af339a8509caf406556bcaeb34701"
            },
            "sequence" : 4294967295
        },
        {
            "txid" : "d27c9b825ddf9aac875f6fe0ff77231daa0c825945bafe9587e7f60d3d2badf9",
            "vout" : 0,
            "scriptSig" : {
                "asm" : "304502201210e9916686a50b4d3b2417015c5bd187db095f899b9250acdf56f6e9e5efa6022100d2dc46bed27eff86963b22c7a88fb8444c589cff4f3d6cd8d515d80ec7f4efe301",
                "hex" : "48304502201210e9916686a50b4d3b2417015c5bd187db095f899b9250acdf56f6e9e5efa6022100d2dc46bed27eff86963b22c7a88fb8444c589cff4f3d6cd8d515d80ec7f4efe301"
            },
            "sequence" : 4294967295
        }
    ],
    "vout" : [
        {
            "value" : 0.80000000,
            "n" : 0,
            "scriptPubKey" : {
                "asm" : "OP_DUP OP_HASH160 7eb88f2e8ded37e31412f3936789136631ac75bd OP_EQUALVERIFY OP_CHECKSIG",
                "hex" : "76a9147eb88f2e8ded37e31412f3936789136631ac75bd88ac",
                "reqSigs" : 1,
                "type" : "pubkeyhash",
                "addresses" : [
                    "WaE57WALHmCoFutaq4HnhBLcZ5FBYBAvgp"
                ]
            }
        },
        {
            "value" : 10.00000000,
            "n" : 1,
            "scriptPubKey" : {
                "asm" : "OP_DUP OP_HASH160 a1deccc73335ada285d6cf8c613c95ddd4c348eb OP_EQUALVERIFY OP_CHECKSIG",
                "hex" : "76a914a1deccc73335ada285d6cf8c613c95ddd4c348eb88ac",
                "reqSigs" : 1,
                "type" : "pubkeyhash",
                "addresses" : [
                    "WdRvaDpZ6yBnNQGTUrUaVSRDzCabSE9BS3"
                ]
            }
        }
    ],
    "blockhash" : "21c13bf359981cab2758bc0ceb4ee02a07420455fb4a116c3b9d84b8f2fcbb8f",
    "confirmations" : 270981,
    "time" : 1413927301,
    "blocktime" : 1413927301
}
